:100000000110A30006000000002000008B87000004
:1000100000040020C5150000411500004115000036
:1000200010B572B6EE201B4908601B481021016014
:100030000322D2048260816118484C210160184972
:1000400081600C2181611748032101606421816076
:10005000154800240463182000F040FE7F22134856
:10006000520202601349124B0B6042605A1C0A6034
:100070008460501C08601049042088620F484021A9
:1000800081604121416042210160012001F026FC94
:1000900010BD0000000302400000044000010440C5
:1000A0003000100000030440000010400003014035
:1000B00040FF0080000001400000034000010140BB
:1000C0000000000000000000000000000000000030
:1000D0000000000000000000000000000000000020
:1000E0000000000000000000000000000000000010
:1000F0000000000000000000000000000000000000
:1001000000000000000000000000000000000000EF
:1001100000F002F800F040F80CA030C808382418AD
:100120002D18A246671EAB4654465D46AC4201D12F
:1001300000F032F87E460F3E0FCCB6460126334221
:1001400000D0FB1AA246AB4633431847DC1A000026
:100150000C1B0000103A02D378C878C1FAD85207B5
:1001600001D330C830C101D504680C60704700006D
:100170000023002400250026103A01D378C1FBD8C3
:10018000520700D330C100D50B6070471FB5C04681
:10019000C0461FBD10B510BD03488546FFF7F6FFEA
:1001A00000F0D5F800F0C5F80004002003B4FFF714
:1001B000F1FF03BC00F0C4F8801C800804D000BF2D
:1001C000401EFDD100BF00BF7047EFF3108072B634
:1001D000704780F310887047002203098B422CD3AC
:1001E000030A8B4211D300239C464EE003460B4387
:1001F0003CD4002243088B4231D303098B421CD3E9
:10020000030A8B4201D394463FE0C3098B4201D3DA
:10021000CB01C01A524183098B4201D38B01C01A12
:10022000524143098B4201D34B01C01A5241030989
:100230008B4201D30B01C01A5241C3088B4201D338
:10024000CB00C01A524183088B4201D38B00C01AE5
:10025000524143088B4201D34B00C01A5241411A0C
:1002600000D201465241104670475DE0CA0F00D0EF
:100270004942031000D34042534000229C460309E8
:100280008B422DD3030A8B4212D3FC22890112BA6E
:10029000030A8B420CD3890192118B4208D3890146
:1002A00092118B4204D389013AD0921100E089095E
:1002B000C3098B4201D3CB01C01A524183098B423F
:1002C00001D38B01C01A524143098B4201D34B0128
:1002D000C01A524103098B4201D30B01C01A52418B
:1002E000C3088B4201D3CB00C01A524183088B4212
:1002F00001D38B00C01A5241D9D243088B4201D39B
:100300004B00C01A5241411A00D201466346524185
:100310005B10104601D34042002B00D54942704784
:1003200063465B1000D3404201B50020C046C04682
:1003300002BD0446C046C0462046FFF737FF000016
:1003400001491820ABBEFEE726000200704701F00D
:100350008DFB01F0D7FBFEE7F0B5114E002370686E
:10036000F7013843706030684008400030601A463A
:100370000021084695012C5C401C091980B24028D8
:10038000F9D3521C5B1892B2802AF1D37068B8433B
:100390007060306801210843306098B2F0BD000001
:1003A0000000104010B50949094B4200094C095C96
:1003B0009B5AA35200230B3C235420460F308352F8
:1003C0000B382246405C0832505410BDE01B000040
:1003D000C0000020DA000020F8B506468024002086
:1003E00015460F469055A85D2043A855304600F0AD
:1003F00030F9B84202D2A85DA043A8556408F2D1F2
:10040000F8BD70B500252C46204600F04DF80028B8
:1004100000D00125641C022CF6D3284670BD0000D4
:10042000F1B51F4900980C5C1E4960000E5A0C3152
:100430000D5A08461B38075D401F009900F0FEF872
:100440000099184A4900121F0028505A09D0711B00
:1004500088421BDA134800221438009900F0A6FAEB
:1004600011E0711988420ED30E490B39085D401E08
:100470000006000E085509D10A48012214380099D7
:1004800000F094FA02E007480B3807550548009938
:10049000143800F0D3F8002800D00120F8BD000087
:1004A000E01B0000E200002070B508490C5C891CCC
:1004B000085C061900252046FFF7B2FF002800D08F
:1004C0000125641CB442F6D3284670BD141C0000FC
:1004D00010B50024204600F043F8641C022CF9D328
:1004E00010BD000010B5164A10681649C0B2087158
:1004F000154B0109987809010007000F0843F02106
:1005000088439978090909010143116010480F498E
:10051000816010494160104908680F22120490431D
:100520000322520410430860072000F0A1FB0B498E
:10053000072000F0CBFB0321072000F0ADFB10BD2E
:1005400000FF0840B000002060F1FF0F0002000132
:10055000000008400008A0010000024069060000F9
:10056000F8B504461B480025025D801C005D96001E
:1005700081004300C018174AC7B208321648935981
:10058000005D1A689C460F238B409A4363461A60AD
:10059000022801D0012800D00625FFF716FE0346E9
:1005A0000C481830815908680722BA409043BD4072
:1005B00005430D601846FFF70CFE064828308059A9
:1005C00002680449891C0B5D012199408A4302603D
:1005D000F8BD0000DC1B0000BE00002010B500F0DC
:1005E000D9F900F07FF90021084600F05FF90021F9
:1005F000084600F0B3F9FF2000F066F9402000F053
:10060000BBF904494868044A10434860072000F0D9
:1006100039FB10BD000008400010088010B50446EA
:10062000641CE4B2022C05D02146034800F006F811
:100630000028F5D0204610BDB2000020CA084B07A4
:100640005B0F01219940805CC9B2084000D00120B5
:10065000704770B5002506462C46304600F072F90A
:1006600000F060F80128FBD0304600F019F9451978
:10067000641CF2D0A8B270BD70B5072000F0F8FA83
:10068000194901204861194C207800F053F8184DA1
:100690002878000604D528784008400028701EE01D
:1006A0002078FFF7BBFF20702078022803D2207843
:1006B00000F062F813E0287840084000287028789D
:1006C00040060CD50B4900200B4A0C4B0870C0B2F9
:1006D000145C1C54401C0006000E0870F7D0072064
:1006E00000F0D0FA70BD000000000840B10000200A
:1006F000B00000200C010020B5000020B200002056
:1007000010B50020064A01461154401C0228FBD3B4
:10071000FFF7E8FE002000F071F9FFF7D9FE10BDE9
:10072000BE00002002480078C007C00F70470000DC
:10073000B000002010B50C4CE1680C4B42009952FF
:10074000FFF70EFF072000F093FA606808490840A1
:100750000521490308436060A06806490840A0607D
:10076000072000F08FFA10BD00000840C0000020F4
:10077000FF1FDFFF00FF80FFFEB505464248405DDA
:10078000840042480059019000F004F900F0AAF8F2
:100790003E4E0021083E705D401E80B200F086F89B
:1007A000B71E785D0021401E80B200F0D7F8FF2010
:1007B00000F08AF8402000F0DFF8072000F058FA37
:1007C0003348406840210843795D735D0E03711A18
:1007D0002E4E80223459904309045C43A14200D23A
:1007E00010432B4C6060072000F04CFA072000F00B
:1007F0003FFAA0682749254A084024490E390C3A97
:10080000525D495D120402431143A16066682248AB
:10081000064022480643072000F034FA1A48001F19
:10082000405D00901848801E405D410047188500DB
:10083000FFF7CBFC8446009881001348001D405808
:1008400002680F23AB409A430423AB400E48134386
:100850001430425815680720B840854315600A488F
:10086000001D405803606046FFF7B3FCFFF7ADFC86
:10087000054666600020FFF79FFC0198E06028466F
:10088000FFF7A7FCFEBD0000E01B0000C400002035
:100890000000084000FF80FFFF1FDFFF2000200056
:1008A00001494000085A7047C0000020054B1A68F3
:1008B00000025207520FC9061043090E0843186080
:1008C000704700000003014005490A68002AFCDB6C
:1008D000000240300122D207104308607047000038
:1008E00000000140034801680029FCDB0249016067
:1008F000704700000000014040000040034840688D
:10090000002802DA02490120087070470000084000
:10091000CC00002010B50A4C00202070FF20607031
:100920006078FFF77BFE60706078022806D220783E
:100930000121084320706078FFF71EFF10BD000002
:10094000B000002010B5044900220A7048708122CE
:100950000A70FFF711FF10BDB0000020054B5A6868
:1009600000025207520FC9061043090E084358608F
:10097000704700000003014005490A68002AFCDBBB
:10098000000241300122D207104308607047000086
:1009900000000140034801680029FCDB02490160B6
:1009A00070470000000001404100004030B5CC0815
:1009B0004D076D0F0123AB40C908415CDBB2002A33
:1009C00001D0194300E09943015530BD014A11544B
:1009D00070470000B8000020014A400011527047E3
:1009E000E2000020014A115470470000B6000020C8
:1009F000014A400011527047E6000020034A810777
:100A00005068490D014351607047000000000840E4
:100A100010B5FFF773FF072000F02AF90748416877
:100A200081221203914341604168490049084160B5
:100A3000FFF7B0FFFFF756FF10BD000000000840B1
:100A4000F8B51E4CE078002803D1FFF759FE0120CD
:100A5000E070FFF7C3FD1A4DA8680321090688431B
:100A6000A860164F0024174E1437305D55218000C2
:100A70003858000C48436421FFF7AEFB0F4A01468B
:100A8000921D2046FFF7A8FC641C022CEDD30B4AF4
:100A90000020921D931C115C4C08491C1C544908F1
:100AA0001154401C0228F6D3A86801210906084306
:100AB000A8606868891008436860F8BDB00000202D
:100AC00000000840E01B000010B5072000F0D0F83F
:100AD00007484168812212039143416041684900FF
:100AE00049084160FFF756FFFFF7FCFE10BD00000C
:100AF00000000840F8B504462C486600005D42003E
:100B00002B48805A00902B48815B29480C38805B29
:100B1000884207D8264B0025113B1D550B1A9DB264
:100B200001271BE0431A9DB2214B00271B1D9B5A36
:100B3000AB4213D21E481E4911381539005D095DBC
:100B4000884206D32046FFF72DFC194900201139B1
:100B500002E017491139401C08551BE0009B9D42DB
:100B600006D9134B1B1D9A5AAA4213D9002F11D133
:100B70000F4A0302173A125D1A435118081A01026C
:100B80000A0C0B490C398A530B39085508480021C7
:100B900011380155064900980839854203D9002FBC
:100BA00001D08D53F8BD00208853F8BDE01B000034
:100BB000E6000020C000002010B5002421460648B1
:100BC000FFF73CFD002802D02046FFF793FF641C8E
:100BD000022CF3D310BD0000B200002000B5FFF7D7
:100BE00089FF00BD10B5FF20FFF7C6FEFF20FFF70D
:100BF0006BFE03480078002801D0FFF7EFFC10BD22
:100C0000CC00002010B500F0C7FE084A08490128B2
:100C100006D00120D072C879FB221040C87110BDE7
:100C20000020D072C87904221043F7E76800002042
:100C30001001002070B501260446074DF60303E0BD
:100C4000E868FFF7B9FAA41BB442F9D8A868604372
:100C5000FFF7B2FA70BD00009C00002010B50349F8
:100C600009784843FFF7A8FA10BD00009C00002057
:100C7000C106C90E01208840014908607047000084
:100C800080E100E0C106C90E0120884001490860EA
:100C90007047000000E100E070B506468007C40E12
:100CA0000D46A41DFFF791FA0146B20806489200CE
:100CB000101802680323A3409A43A540154305601A
:100CC0000846FFF786FA70BD00E400E001225207F3
:100CD00080008218106C11647047000070B50446E3
:100CE000182803D0202C01D0302C3CD1FFF76DFA0E
:100CF0001D4D0646A868C008C000A860E8681B49EA
:100D0000000A00026118497B0843E8602869C008AE
:100D1000C0002861A8691549C009C00120396118BF
:100D2000097D4906490E0843A8613220FFF744FABD
:100D3000182C15D90120E40640072018A968400F97
:100D4000C908C9000843A8603220FFF735FA01201E
:100D500080072018A968400FC908C9000843A86087
:100D60003046FFF736FA70BD000F0340C0F1FF0FA9
:100D700010B5FFF72AFA0649498A064A5160064922
:100D80000A6904231A430A6130BFFFF722FA10BD33
:100D900040F1FF0F0000034000ED00E00248416811
:100DA000012211434160704740000340024901485D
:100DB000886370476588EDAC000003400248C16855
:100DC00049084900C1607047400003400148C06BBA
:100DD00070470000000003400248C168012211432F
:100DE000C16070474000034003490A68120C1204B6
:100DF00002430A607047000040000340F8B59A487B
:100E00000068002800D08047984804889848056802
:100E100098480668FF200230974F05422DD0974929
:100E2000086840004008086095480278DF231A40AF
:100E30000270027810231A4302708D4A4032936880
:100E4000DB0617D48F4D2D78AC4203D003780825EC
:100E50002B43037089484030036A05256D03AB437B
:100E600003620020B8609060874A10700868AA0486
:100E70001043F5E003780225EAE7F00603D57D4844
:100E80000021803081600A20064274D0F8687F4BD0
:100E9000400744D518687C490978002911D00129F8
:100EA0003BD17B490B88002B35D0744A012140325D
:100EB000D162784909680855641C75485B1E038037
:100EC0002BE075490988884225D26C4A01234032BB
:100ED000D362724904460988884201D2081B00E0A7
:100EE000002080B26A490828088002D26648037050
:100EF00008E00828106A08D001214903084310625D
:100F00000820B8605F48047007E0052149030843E2
:100F100010620020F5E700F053F9042039E057484B
:100F20004030006A800435D5B0070FD557484038A7
:100F3000806852490007000F4031096A05225203B8
:100F400091434E4A40321162012107E0504908881E
:100F5000083880B2088008280ED80021002807D061
:100F60004C4A1268494B1B681355641C401EF9D14A
:100F7000002904D00CE00DE008200121F0E73F48F3
:100F80004030016A0122D203114301620020B8609F
:100F90000C203860B00746D5E8062026002812DA73
:100FA0000021B960324840308160364A0220127810
:100FB000944200D00A20324A284013781843B043A4
:100FC00010703148017068062BD52D4908783043E0
:100FD00008702C48294904784031486AC00612D567
:100FE0002D480088021B2A4802802D4843680122B0
:100FF0001204134343604368934343601C4A102028
:101000004032906001E00420B8601A48012280302C
:1010100002601748234B03608368102633438360C4
:10102000CA621348056013480068400719D519487B
:101030001B4B174A40331A4D0168FF2710880028C0
:1010400005D00E5D1E60641C401E108000E01F6015
:10105000A8680007000F0828F0D10549102040318A
:10106000086002480480F8BDF80000200401002058
:10107000400F0640000E0640C00F0640000006402C
:10108000FC000020FE000020FD0000204003064080
:101090000E010020080100200001002002010020B4
:1010A00000020640FF0F000010B5044801688203EB
:1010B000114301600520FFF7E5FD10BD000006406B
:1010C00010B50520FFF7D4FD05490C7808784009D4
:1010D000400108700520FFF7D5FD204610BD000037
:1010E000FC00002010B5FF201849013008601749A6
:1010F00017484031086218481649016000244460CE
:10110000164A02611648016044600520FFF7B0FDF1
:1011100003210520FFF7C0FD12490520FFF7D6FD8A
:1011200011488460FF2010495230C03188600E4859
:10113000803084600D4884600C48403884600C48DE
:10114000447004700481847010BD000000000640EB
:101150000008004007010080000306404000FE0038
:1011600000020640ED0D0000800E0640C00F064054
:10117000FC00002010B5034900208860FF2000F02B
:1011800035F810BD800E064010B5012400F03CF883
:101190000148846010BD0000800E064070B5140048
:1011A0000E46054609D00520FFF762FD034B0520DA
:1011B000DC609D80DE80FFF765FD70BDFC000020D7
:1011C00008480168084BC90509D5196A490406D4BD
:1011D000026881158A43026002680A4302600220A5
:1011E000D8627047000006404000064005490A6882
:1011F000002AFCDB000242300122D20710430860C3
:101200007047000000000140034801680029FCDB32
:1012100002490160704700000000014042000040A8
:1012200010B5FFF7B1FF10BD10B5054C20780028B0
:1012300003D1FFF757FF01202070FFF735FF10BDE6
:10124000F400002010B5FFF795FF10BD03498A6830
:1012500038239A43C00002438A6070470003044069
:10126000044A1168FD23C0071940800F084310602D
:10127000704700000003044003498A68D208D20086
:1012800002438A607047000000030440044A11686A
:10129000FE23C0071940C00F0843106070470000CC
:1012A00000030440F8B56D4FB87A01280BD1002433
:1012B000FFF706FF800606D50220FFF7CFFC641C6F
:1012C000A4B2642CF4D3664E30213078757802468F
:1012D0000A40B478DF21102A02D0202A08D00DE07D
:1012E000FA79002A0AD101223A72EF22104004E072
:1012F000FA79002A02D13A7208403070002D01D0EC
:10130000002C06D0A80610D5AA2C04D0BB2C07D0E0
:101310000BE00120F8BD284608407070002003E073
:101320002846084070700120B872E8090FD0AA2C36
:1013300021D100217973F079BF221040802210431F
:10134000F07170784006400E7070B17011E0680660
:1013500011D5AA2C0FD101207873F07940214006D5
:10136000400E0843F0717078BF2108407070002073
:10137000B07000F035F9082D08D0012D0FD0042DE4
:1013800030D0402D55D0802D5CD065E0AA2C63D1A3
:1013900008203873F079C5210840102158E0AA2CA4
:1013A0005AD10120387300F085F8F079C521084042
:1013B00002210843F0710020B07032207072B072C8
:1013C00001460020FFF708FB32210120FFF704FB54
:1013D000002428212046FFF70BFB641CA4B2022C3A
:1013E000F7D339E0AA2C37D17D200001FFF722FC8A
:1013F0000420387300F05EF8F079C5210840082118
:101400000843F0710020B07028207072B07201465D
:101410000020FFF7E1FA28210120FFF7DDFA002480
:101420001E212046FFF7E4FA641CA4B2022CF7D375
:1014300012E0462C10D10020F871F179BF22114042
:10144000F17108E0772C07D10120F871F079402183
:101450000843F0710020B0700020F8BD6800002043
:101460001001002004498A6807239B049A438004E2
:1014700002438A607047000000010440044A11687A
:10148000BF23C0071940400E08431060704700009A
:101490000001044010B5054A054B00204100401CE6
:1014A000545AC0B25C520228F8D310BDC0000020CC
:1014B000DA000020F8B500F04BF900F0B3F80C4E5C
:1014C00000240A4D371F2046FEF76CFF6000295AA2
:1014D000074A31523952083A1152121F641CE4B2C1
:1014E0001152022CEFD3FFF767FBF8BDC0000020BC
:1014F0009000002070B5FFF7A3FA1348407B012845
:101500000ED1124D0024AE1C295D2046FFF76AFA69
:10151000315D2046FFF75AFA641CE4B2022CF3D383
:1015200032210020FFF758FA32210120FFF754FA48
:10153000002428212046FFF75BFA641CE4B2022C49
:10154000F7D3FFF7B7FF70BD68000020D01B000085
:10155000FEE70000044A1168BF23C0071940400E8F
:10156000084310607047000000000440044A1168FE
:10157000FD23C0071940800F08431060704700002A
:101580000001044070B5114E0125317A3046104CEF
:10159000407A012901D101280DD001430AD101204F
:1015A000FFF7D8FF0120FFF7E1FF7572E0794008EF
:1015B0004000E07170BD0020FFF7CCFF0020FFF776
:1015C000D5FF00207072E0792843F2E76800002020
:1015D0001001002010B5FFF7E9FBFEF799FD10BDE3
:1015E00070B5FFF771FA0520FFF724FBFFF728FA23
:1015F0000A48407B01280ED1094D0024AE1C295D0C
:101600002046FFF7EFF9315D2046FFF7DFF9641C54
:10161000E4B2022CF3D3FFF74DFF70BD6800002049
:10162000D01B000030B5074A074B00204100545A38
:101630005D5A401C6C43A402240CC0B254520228D0
:10164000F4D330BDC0000020D41B0000F8B53B49E6
:101650008879401CC0B28871032805D93848827C3B
:10166000521C8274002088713448007B082858D0AE
:1016700000F06EF8FFF7D6FF324E334F00256C00B6
:10168000305B395B884201D9411A00E0091A7D229A
:101690001201914204DD2949887B401C88732CE0AB
:1016A000264B20331A5B191D0A530839095B19535D
:1016B0001B1F185310331A8059809880184600F069
:1016C000C3F91E4A014630532832105B884206D9BE
:1016D000491C89B23153884201D9491C315389B21E
:1016E000884206D2491E89B23153884201D2491E2E
:1016F000315311532846FFF771FA1448005BA028B4
:101700000BD90E494879401CC0B24871102804D149
:1017100000204871385B401C38536D1CEDB2022D1F
:10172000ADD30648817A012906D1817B012903D9ED
:1017300000218173FFF7BEFEF8BD000068000020A5
:1017400030010020C0000020DA000020DE00002070
:101750007CB5002001466D468200401CC0B2A950F5
:101760000228F9D30024104EFFF7D4F8FEF7DAFF71
:101770000028FBD1810043006A58F35A401CD2185C
:10178000C0B26A500228F5D3641CE4B2042CEBD337
:1017900000208100695842008903090C401CC0B236
:1017A000B1520228F5D37CBDC000002070B5FFF710
:1017B00087FC0020FFF762FE00240E4DFFF780FC3F
:1017C000800606D40220FFF749FA641CA4B2AC429A
:1017D000F4D30024FFF774FC800606D50220FFF73F
:1017E0003DFA641CA4B2962CF4D30120FFF746FE08
:1017F00070BD0000DC05000070B5FEF702FE344845
:10180000344D00786874E97B0026884200D02E743D
:10181000E873297C0124491CC9B22974EA7A002A98
:1018200001D0012A04D1012902D92E74AC7402E03E
:10183000A97C00294BD0AE742E70C10700D02C704B
:1018400080070222002802DA2878104328702878BE
:101850006978884225D04140EE70A970CB0704D04A
:10186000C30701D0EC7000E0EA70890707D5800754
:10187000E87801D5042100E008210843E870164902
:10188000E878C870FFF792FFAE82EE822E71E87999
:1018900001281AD12878002801D02C7215E02E7268
:1018A00013E0002809D0A88A401C80B2A8825028E2
:1018B0000BD9AE82FFF7EEFD07E0E88A401C80B24C
:1018C000E882A02801D3EE822C712878687070BD60
:1018D000CE0000206800002010010020094A116895
:1018E000002802D09304194301E04900490811601F
:1018F000054B996A2022002801D0114300E0914352
:1019000099627047002002400000034070B5002437
:101910001E4DFFF7D5FB800606D50220FFF79EF986
:10192000641CA4B2AC42F4D3194C2079002816D020
:1019300019204001A061FFF741FAFFF747FAA169BA
:1019400080B24018FFF750FAFFF746FA1148406A94
:10195000C007C00F06D00C20FFF76CF970BD09203E
:101960008001E7E70020FFF77DFDFFF751F8FFF763
:1019700057FCFFF7FDF9FFF765FCFFF733F904208B
:10198000FFF770FD0120FFF779FD70BDDC05000059
:101990006800002040000640024840684007C00F31
:1019A000704700000003044010B5FFF7F7F9FFF798
:1019B00005FAFFF70BFA044980B289694018FFF76E
:1019C00013FAFFF709FA10BD68000020F0B572B6EF
:1019D0000020174E174F18494300CA5A1749C95AD1
:1019E0000C465443A402240C2502240A2543DC1986
:1019F000E583F35A59438902090C0D02090A0D4384
:101A0000E5849A4201D9D11A00E0002189B20A0284
:101A1000090A0A430A49E2820A5C39184A73094AE8
:101A2000125C401CC0B24A740228D4D362B6F0BD26
:101A3000DA00002010010020C0000020D81B0000A8
:101A4000B6000020B80000208288418800888A42C1
:101A500007D3814201D3084670479042FCD3104619
:101A600070478242FBD28842F5D2704770B50F4C66
:101A7000206840084000206000200D4B0D4A01E026
:101A8000042802D28100595800E00B498500401C0F
:101A900051511928F4D3FEF7C3FA08490020086011
:101AA000206801210843206070BD00000000104044
:101AB000000000000000002041150000640000202C
:101AC00010B50446FEF781FB04494A68C0239A43D7
:101AD000A3011A434A60FEF77CFB10BD00E400E05E
:101AE00010B5064910240C60054908650320FFF76E
:101AF000E7FF02488038046010BD000080E100E08C
:101B0000000000200120FFF725FD0120FFF72EFD3A
:101B10002F4D01276F720420FFF7A4FC0120FFF76F
:101B2000ADFC2C4C0026267041206070A670E6703B
:101B3000A3202071062060718020A0718220E071B6
:101B400032206072A072267266752348E085FEF727
:101B500003FC2086224603213A20FFF71FFBFFF7F4
:101B600063FB0220FFF772FB0220FFF785FB0120D9
:101B7000FFF776FB0120FFF789FB62B6FFF716F946
:101B80001E20FFF757F8EE712F736E73AF72EF726E
:101B9000A869FFF729F9FFF71FF91048FFF7A0FF21
:101BA000FFF7A8FCFFF752FDFFF726FEFFF77AFBD1
:101BB000FFF7E8FCA87A002804D0FFF7A7FEFFF79C
:101BC00021F8EFE7FFF702FF0C20FFF733F8F6E705
:101BD0006800002010010020090A00009919000087
:101BE0003A31393033003300500050000101030214
:101BF000000100000000024000010240000202401B
:101C000000030240080004400801044008020440A8
:101C100008030440000004400001044000020440A6
:101C20000003044000010101481C000000000020E6
:101C30006400000044010000AC1C000068000020AB
:101C4000A800000044010000541D00001001002005
:101C50003C000000600100000000000000000000E7
:101C60000000000000000000000000000000000074
:101C70000000000000000000000000000000000064
:101C80000000000000000000000000000000000054
:101C90000000000000000000000000000000000044
:101CA0000000000000000000000000000000000034
:101CB0000000000000000000000000000000000024
:101CC0000000000000000000000000000000000014
:101CD00000000000400200000000000000000000C2
:101CE00000000000000000000000000000000000F4
:101CF0000C000000001BB700E02E00000000701771
:101D000000000000000003000000404040400202CC
:101D100001010000000000000000FF3F0000FF3F45
:101D200000000000000A0A0101000000000000009D
:101D300000000000000032003200280028001400DB
:101D4000140001000100000000000000000000007D
:101D50000000000000000000000000000000000083
:101D60000000000000000000000000000000000073
:101D70000000000000000000000000000000000063
:101D80000000000000000000000000000000000053
:00000001FF
